:100000008018002039170000214400000D1700005F
:100010000D1700000D1700000D1700000000000074
:1000200000000000000000000000000009140000B3
:100030000D17000000000000B51300000D170000B0
:10004000B9140000B9140000B9140000B91400007C
:10005000B9140000B9140000B9140000B91400006C
:10006000B9140000B9140000B9140000B91400005C
:10007000B9140000B9140000B9140000B91400004C
:10008000B9140000B9140000B9140000B91400003C
:10009000B9140000B9140000B9140000B91400002C
:1000A000B9140000B9140000B9140000B91400001C
:1000B000B9140000B9140000B9140000B91400000C
:1000C000B9140000B9140000B9140000B9140000FC
:1000D000B9140000B9140000B9140000B9140000EC
:1000E000B9140000B9140000B9140000B9140000DC
:1000F000B9140000B9140000B9140000B9140000CC
:1001000053B94AB9002908BF00281CBF4FF0FF317E
:100110004FF0FF3000F00CB8ADF1080C6DE904CEE3
:1001200000F008F8DDF804E0DDE9022304B07047D0
:10013000704700BF2DE9F04786468C460846089E6A
:10014000154674461946002B40F0C2808542B2FA2B
:1001500082F245D94AB1C2F1200300FA02FC2EFA1C
:1001600003F3954043EA0C0C94404FEA154EA8B2B5
:10017000BCFBFEF8230C0EFB18CC08FB00F943EA8D
:100180000C43994528D9EB1808F1FF3704D299455B
:1001900002D9A8F102072B44A3EB0903A4B2B3FBD5
:1001A000FEFC0EFB1C330CFB00F044EA0344A042AF
:1001B00014D92C190CF1FF3304D2A04202D9ACF1AE
:1001C00002032C44241A43EA07401EB1D440002302
:1001D00034607360BDE8F0874746DDE76346F1E7CA
:1001E00092BB431B01214FEA154EAFB2B3FBFEFC9D
:1001F000200C0EFB1C330CFB07F840EA0343984528
:1002000062D9EB180CF1FF3004D2984502D9ACF159
:1002100002002B44A3EB0803A4B2B3FBFEFC0EFBCD
:100220001C330CFB07F744EA0344A7424ED92C19B0
:100230000CF1FF3304D2A74202D9ACF102032C44E3
:10024000E41B43EA0040C0E7C2F1200320FA03F1B7
:10025000954090402EFA03F303434FEA154EAFB298
:10026000B1FBFEFC0EFB1C10190C0CFB07F841EA5D
:100270000041884504FA02F422D969180CF1FF30D4
:1002800004D2884502D9ACF102002944A1EB08014F
:100290009BB2B1FBFEFC0EFB1C110CFB07F743EA03
:1002A00001439F420ED9EB180CF1FF3104D29F425B
:1002B00002D9ACF102012B44DB1B41EA004192E779
:1002C0006046E3E76146F7E76046A3E76346B7E7C2
:1002D000834206D916B9002108467BE7C6E900E04B
:1002E000F9E7B3FA83F78FB9834201D3724508D88F
:1002F000BEEB020460EB030301209C461EB9002103
:1003000068E73846FAE7C6E9004CF8E7C7F1200C81
:10031000BB4022FA0CF41C432EFA0CF120FA0CF329
:10032000B84001434FEA14490EFA07F5B3FBF9F858
:100330001FFA84FE09FB18300B0C08FB0EFA43EA87
:1003400000439A4502FA07F240D9E31808F1FF305A
:1003500004D29A4502D9A8F102002344A3EB0A0370
:1003600089B2B3FBF9F809FB183308FB0EFE41EA2A
:1003700003418E452CD9611808F1FF3304D28E4514
:1003800002D9A8F10203214443EA0040A0FB0298ED
:10039000A1EB0E014145CE46434602D306D14D4561
:1003A00004D2B9EB020E68EB04030138002EA6D08C
:1003B000B5EB0E0261EB030101FA0CFC22FA07F324
:1003C0004CEA0303F940C6E9003198E74046C5E727
:1003D0004346D9E730B585B01B4C204604F0FAF906
:1003E00078B32269A568136843F4005313602B683F
:1003F000164A0D21204698474FF0A0430C22C3F81F
:100400002C27D3F82C2742F44032C3F82C270021A4
:100410004FF4A02003F0D2FA4FF400516B6920464C
:1004200098470020062301A9CDE9010003908DF82B
:10043000043000F061FD4FF42030002103F0BEFADB
:10044000FEE705B030BD00BF4C4B000001000600C8
:10045000014B1B68184700BF0000002007B50B4682
:10046000002102460091034800F014F903B05DF842
:1004700004FB00BF510400002DE9F047058B044642
:100480002807904611D4022905F0070540F0CD80D9
:10049000204603F07FFE78B10138218B042811D863
:1004A000DFE800F0C3106D85950001290CBF45F011
:1004B000100545F02005258388F31188BFF36F8F61
:1004C000BDE8F08701F0070AAA4500F0A6800027E2
:1004D000B9463E46A368002B00F0BD8041F00801FC
:1004E000218388F31188BFF36F8FA168002900F082
:1004F000BB800D68002900F0B780D1F80480334636
:1005000052462046C047002D76D02B6829461D460E
:10051000F0E701F007035A1F012A1BD8002221F03F
:100520000701062B276889B2C4E9002209D13B469E
:1005300003E0628B013262831B68002BF9D141F02A
:1005400002012183204603F025FE00287BD041F0E4
:10055000200177E0042B0AD121F0070189B2218321
:10056000204603F017FE10B141F020012183218BBA
:1005700001F0070AAA4550D00027B946AAE7236927
:1005800021F0070141F00601062DD3F800902183E8
:100590002DD1B9F1000F40D041F00801218388F33B
:1005A0001188BFF36F8F3A492046C84729E021F0F0
:1005B0000701236941F0040189B2042DD3F80490A6
:1005C0002183E6D000273E464FF0040A82E721F05F
:1005D0000701236941F0050189B2052DD3F8089080
:1005E0002183D6D000273E464FF0050A72E7002748
:1005F0003E464FF0060A6DE72B4687E7B9F1000F3C
:10060000D1D14FF02003EFF3118883F31288BFF3A9
:100610006F8F238B23F008032383258BEA062ED5C7
:1006200025F01003238305F007056669218B002E52
:10063000BFF66FAF00232768C4E9003321F007013C
:1006400041F001012183218B01F0070AAA454FF0F7
:1006500000097FF43FAF002F9BD041F008012183B8
:1006600088F31188BFF36F8F002FC7D03D683946DC
:1006700033465246204603F0B9FD2F46F4E7AB0659
:100680007FF51AAF25F02003238305F00705FFE669
:10069000194200002DE9F04F814695B08B46174670
:1006A0001C460025387808B9284658E37B1C2528C5
:1006B000039306D05946C8470028C0F2508301353D
:1006C000FBE1182200210EA803F0CCFE7B78252B3D
:1006D0007DD00023781C98469E469C461E460146C7
:1006E00010F8012B2B2A00F0A18000F29880202A1C
:1006F00000F09F80232A00F09F802BB19DF84030AE
:1007000043F040038DF84030B8F1000F05D09DF85C
:10071000403043F020038DF84030BEF1000F05D08B
:100720009DF8403043F010038DF84030BCF1000FCD
:1007300005D09DF8403043F008038DF840302EB1CD
:100740009DF8403043F004038DF840309DF8403070
:1007500003F04400442803D16FF386138DF8403032
:100760009DF840302A2A43F080038DF840307FD135
:100770009DF8412042F001024B1C8DF841201A786F
:100780002E2A9DF841200CBF0121002161F3410276
:100790008DF8412078D15A782A2A6ED00133002270
:1007A0004FF00A0C194611F8010BA0F13006092E82
:1007B00040F295809DF840101292C1F3400040EA4B
:1007C000D2700A4660F341028DF840205CE0BA1C0A
:1007D00003928DF843309DF84130DA0740F12E81C5
:1007E00054F8048BB8F1000F07DA9DF8402042F06E
:1007F00004028DF84020C8F100085E0740F127810F
:1008000054F804ABBAF1000F80F226819DF8413014
:100810006FF341038DF841304FF0FF3A1CE12D2A70
:100820000DD0302A7FF469AF012358E74FF0010C57
:1008300055E74FF0010E52E74FF001084FE7012650
:100840004DE70EFB0262303A0346184610F8016B82
:10085000A6F1300CBCF1090FF3D999428FD09DF865
:1008600040101192D20F62F341018DF8401086E7DB
:100870000B4600224FF00A0EE7E79DF8412042F0B8
:1008800004028DF8412002331A786C2A47D02BD805
:10089000682A31D06A2A4BD04C2A51D01A4612F815
:1008A000013B0392782B9DF841208DF8433000F2F4
:1008B000BE806D2B51D8692B00F2B980572B67D8B9
:1008C000412B03D0453B022B00F2B1809DF8423012
:1008D000042262F302038DF84230012373E00CFB23
:1008E0000202303A0B465DE7742A25D07A2AD5D128
:1008F0009DF8412006210CE05A78682A9DF8412095
:1009000006D1012161F3C6028DF841200233C5E70B
:10091000022161F3C6028DF841200133BEE75A7807
:100920006C2A9DF8412001D10421EBE70321F0E777
:100930009DF841200521ECE79DF841200721E8E7DB
:10094000BDF8402022F4F04222F0020242F480423C
:1009500042F00202ADF84020DFE76E3BD9B201233E
:100960008B4040F282410B4237D113F0240F51D11A
:10097000D8075CD59DF84230032161F302038DF85E
:10098000423002F07803A3F140014B424B411AE0A0
:10099000A3F15801C9B2012000FA01F111F4624F2C
:1009A00094D140F6010631421DD111F4043F3ED0EE
:1009B0009DF8423060F3020302F07802402A8DF87D
:1009C000423034D000239DF84020C2F340010B4355
:1009D00063F341028DF84020FDE69DF8423002218C
:1009E00061F30203E8E79DF84210022002F078026A
:1009F00060F30201402A8DF8421002BF9DF84010BA
:100A000041F001018DF84010632BDBD1131E18BF9C
:100A10000123D8E79DF84230032161F3020312F06D
:100A2000780F8DF8423014BF01230023CBE79DF8E7
:100A3000403043F001038DF84030C3E79DF940207A
:100A4000002AB4BFDDF844804FF0FF38D5E69807A0
:100A50007FF5E2AEDDF848A09DF841100023CDE916
:100A600011339DF8423003F00703012BC1F3C3019A
:100A700033D1CB1E042B04D8DFE803F021464621F6
:100A80002100236801294FEAE372CDE90E321CD11F
:100A90009DF93830DA17CDE90E3204349DF8403034
:100AA00013F0030650D0039B3A465946484603F0DC
:100AB00090FC0028C0F253810544039FF2E554F8EE
:100AC000043BDA17CDE90E32E8E70229E5D11AB284
:100AD00043F3C033CDE90E23DFE7022B24D1CB1E35
:100AE000042B04D8DFE803F01810101818000129AF
:100AF00054F8043B4FF0000214D00229CDE90E3225
:100B0000CCD19BB20E93C9E7073424F00704F4E874
:100B10000223CDE90E23C1E754F8043B0E930023D2
:100B20000F93BBE7DBB2CDE7042B08D1073424F0E9
:100B30000704D4E900230834CDE90E23AEE7032BE4
:100B4000ACD154F8043BDDE79DF843007828B4D8D5
:100B500062281CD825283FF4ADAD5828ADD10DF141
:100B600036030093DDE90E0108AB10AA03F0EBFB9E
:100B7000BAF1000F074680F29A80002F9DD00DF148
:100B80003603D81B002E00F0C1800130BEE0633870
:100B9000152892D801A252F820F000BF710C000075
:100BA000830C0000BB0A0000BB0A0000BB0A000067
:100BB000BB0A0000830C0000BB0A0000BB0A000057
:100BC000BB0A0000BB0A0000110D0000A90C0000C8
:100BD000CF0C0000BB0A0000BB0A0000F50B0000B0
:100BE000BB0A0000A90C0000BB0A0000BB0A000001
:100BF000A90C0000BAF1000F0E9F35DB51463846B4
:100C000003F01CFC07EB000A002F3FF456AF002650
:100C10009DF8423013F01002059200F093800230EC
:100C20005B06119A48BF129B0492104448BFC0183B
:100C3000B8F1000F40F3A0809DF84020A8EB000819
:100C4000C2F380035007069300F19680510640F1ED
:100C500089803EB159463046C84700287FDB069B55
:100C600001351E4630227EE0384603F0E0FBC9E73E
:100C70000E9B8DF82030002608AF0DF1210A0120CF
:100C8000C6E719075CBFC3F300135E01DDE90E235D
:100C900048BF2B26002BBFF662AF524263EB4303E3
:100CA000CDE90E232D265AE7002658E700269DF8A9
:100CB00040200DF13603DB1B6FF386129A458DF849
:100CC00040207FF65AAFAAEB0303119355E70E9825
:100CD00090B30DF13603009310AA08AB002103F086
:100CE00032FBBDF8423003F0EF0343F4F04343F02E
:100CF0001003BAF1000F0746ADF84230D6DA0028EB
:100D00003FF4DBAE0DF13603181A00269A467FE752
:100D10000E9B07293FF6D1AEDFE801F00C04060C6C
:100D200008080C0C1D70C8E61D80C6E6EA17C3E96A
:100D30000052C2E61D60C0E62E4F064607F1050AC6
:100D4000052065E71A0748BF013069E70793104699
:100D500006925946C8470028DDE9062304DA15B093
:100D6000BDE8F08F202243461946002903F1FF33E6
:100D7000ECDC45446D1A98462EB159463046C847BA
:100D80000028ECDB01359DF84230DA0601D41B0760
:100D900005D559463020C8470028E0DB0135059BC2
:100DA00033B19DF843005946C8470028D7DB0135C9
:100DB000049E2E4405E059463020C8470028CEDB6B
:100DC0000135731B002BF6DC53463A46594648461C
:100DD00003F0FFFA0028C2DB0544A844A8EB050392
:100DE000002B7FF76AAE59462020C8470028B6DBA3
:100DF0000135F3E7804E000008B54FF02002EFF315
:100E0000118382F31288BFF36F8F00F011FE034845
:100E100003F0A9F900F048FAFCE700BF864E000095
:100E200001F02CBB2DE9F84305464FF02003EFF30A
:100E3000118683F31288BFF36F8F0E4B0E4F1C6821
:100E4000DFF838804FF00C092CB986F31188BFF316
:100E50006F8FBDE8F883D4E90123002D18BF134636
:100E60002BB198F8142009FB02F2B85C984724686B
:100E7000EAE700BFA80200209C02002070080020C2
:100E800070B5194B1C7DBFF35B8F04F01F0301226B
:100E90009A40164B610903EB8103D04353E8001FCE
:100EA00001EA000543E80056002EF7D1BFF35B8F3F
:100EB0000A4213D00E4B0F4D8BB10C236343EA183B
:100EC000E85C517803F0E3FA0020FFF7ABFF0C2356
:100ED0005C432A1900232B51C2E9013370BD83F30F
:100EE0001188BFF36F8FEFE770080020B002002079
:100EF0008F4400009C02002010B54FF02003EFF358
:100F0000118483F31288BFF36F8F064B0C2202FB10
:100F1000003307C983E8070084F31188BFF36F8F9C
:100F2000012010BD900200202DE9F041354B07460D
:100F30001D7D4FF02003EFF3118883F31288BFF378
:100F40006F8F0C24304B314E6C431A19195D0029F8
:100F50004CD007CA06EB040C8CE8070000221A5597
:100F600088F31188BFF36F8F0C236B43F218F05C8A
:100F7000002839D07B1C10D0D2F808C0244C254A58
:100F80004FF400400021ECFB004100232046FFF716
:100F9000B7F80121381A03F074FD02F051FC01206A
:100FA000FFF740FFBFF35B8F1B4B6A0903EB820324
:100FB00005F01F0101228A4053E8000F104343E867
:100FC00000010029F8D1BFF35B8F144B3BB10C2318
:100FD00003FB05F03318305C597803F04CFAFFF747
:100FE0004FFF02F041FC0120BDE8F0810146284698
:100FF00000F016F80028B3D007C8344484E807008E
:10100000AEE700BF70080020900200209C02002084
:101010003F420F0040420F00B00200207744000022
:101020002DE9F04F85B00E4603A900F043F81E4BA2
:10103000039DD3F800A0DFF87480431E1BB203EBBE
:101040004303044605EB83054FF400474FF0000BC4
:1010500024B9A146484605B0BDE8F08F6868144A37
:10106000C4465946E0FB07C100236046FFF748F835
:101070000190A8680E4AC4465946E0FB07C1002308
:101080006046FFF73DF8BAF1FF3FA94601D082451F
:1010900005D9731CDED0019B1844B042DAD9013C5B
:1010A000A4B20C3DD4E700BF040000203F420F0073
:1010B00040420F0008B9024B0B600020704700BF90
:1010C000084D0000014802F0A1BE00BF084D00001D
:1010D00038B5044618B90F4B0F485B6898476168EC
:1010E000B1F5683F0FD0B1F5680F0CD00B4DA94298
:1010F00009D011F4686107D00948214603F0B8FB14
:1011000000232360656038BD2068142203F0AAF92B
:10111000F8E700BFB0000020AF4E00002C5F5CA9D4
:10112000B407002008B520B34368B3F5683F10D179
:1011300001220368BFF35B8F53E8001F002903D12E
:1011400043E800200028F7D1BFF35B8F0DD10020CA
:1011500008BD094A93420AD000684FF0FF324FF0B1
:10116000FF3302F065F80028F1D00448F0E70448A6
:10117000EEE76FF4E040EBE72C5F5CA9E98FFFFF3F
:10118000EA8FFFFF08B5D8B14368B3F5683F10D1C7
:1011900000220368BFF35B8F53E8001F012903D1CE
:1011A00043E800200028F7D1BFF35B8F0BD100206C
:1011B00008BD074A934208D0006802F0B3F8F6E78A
:1011C0006FF4E040F4E70348F2E70348F0E700BFBC
:1011D0002C5F5CA9E98FFFFFEA8FFFFF10B5044683
:1011E00018B91D4B1D485B6898476368B3F5683FA5
:1011F0002FD0B3F5680F2CD0194A934219D1236828
:1012000003BB18484FF0FF324FF0FF33214601F087
:1012100037FF08B923681BB90F4B13485B68984721
:1012200020681422002103F01DF94FF46863636005
:1012300008E0B3F5683F0DD83A2B03D040F6BA6208
:101240009342DED1206803F051FB636843F03A0318
:10125000636010BD054AF3E7B0000020AF4E000008
:101260002C5F5CA9B4070020D54E00003A00003A7C
:1012700008B5064906484023142203F0EBFABDE8FE
:1012800008400449044802F033BE00BFB402002005
:10129000B4070020104D0000244D00000149102229
:1012A0000A60704710ED00E072B6404080F311888C
:1012B000BFF36F8FBFF34F8F30BF62B6BFF36F8F37
:1012C000704700BF72B6494081F3118820BF80F398
:1012D000118862B6704700BF40B2002807DB044A9D
:1012E0004109012300F01F00834042F8213070477C
:1012F00000E100E0054B420900F01F0053F82220F6
:10130000012303FA00F01040704700BF00E100E045
:1013100040B20028A8BF00F1604001F10101B8BF50
:10132000064B4FEA4111ACBF00F5614000F00F00E1
:10133000C9B2B4BF195480F80013704714ED00E02F
:1013400030BFFFF7FDBF00BF0B4A08B50B4B22F0C3
:101350007F029A60BFF34F8FBFF36F8FD3F888205F
:1013600022F47002C3F8882001F0C6FD02F0A6FB4B
:1013700000F0D6F901F004FE0000000000ED00E0EE
:10138000094A0A49936809689967094958674B6887
:1013900043F080534B60002383F31188BFF36F8FBA
:1013A0009368986F704700BF70080020DC4D000004
:1013B00000ED00E012498A684FF030001044EFF36E
:1013C000098C80E8F01F202080F31288BFF36F8F14
:1013D0000C4F4FF00066CA698A603E60506F002370
:1013E000536780F3118804B5104600F035FABDE864
:1013F000044002F1300090E8F01F8CF30988704738
:101400007008002004ED00E01EF0040F0CBFEFF3A5
:101410000880EFF30980816911F8021C0229FFD0CE
:1014200001B502F0F5FF01BD42F8203C009B42F8F7
:101430001C3C0A49019B42F8183C029B42F8143CB0
:1014400021F001014FF0807342F8043C42F8081C7F
:101450000023203A02654367704700BF81410000C6
:10146000094A0346906870B113F1160F406E05D01B
:10147000A0F140029A4205D8834203D2814228BF9C
:1014800000207047002070477008002008B5094B05
:1014900098600D46144600F0DFF9204685F3098870
:1014A000002163B681F31188BFF36F8F0022002300
:1014B00002F066FE7008002001B572B60B4A906912
:1014C00000281EBF0021916103F001FA62B6EFF31C
:1014D0000580A0F110004FEAC0000549014409C988
:1014E0009847BDE801400349084700007008002004
:1014F000644B0000F9140000044B9968D8698842D5
:1015000003D003494FF080520A60704770080020F2
:1015100004ED00E070B51D4B15469A6A9A6A9A6A06
:101520009207064622D5586B9A6A14061ED519B141
:101530009A6A22F080029A629A6A9A6A9A6A134CAC
:1015400012F0100F15D19B6A990712D40020A36ADC
:101550000E4A9B0642BF636A23F400536362936A98
:1015600043F0FF03936200232B7070BD6FF01500F2
:10157000E2E763681A05E9D53146FFF771FF0028F5
:10158000E4D080F309880220E1E700BF00ED00E02D
:101590000D4B9A6A9A6A9A6A920508D59A6B9A6A6A
:1015A000120404D518B19A6A22F400429A629A6A27
:1015B0009A6AD205044A58BF9B6A936A002043F492
:1015C0007F4393620870704700ED00E070B54A4BAE
:1015D0005B688AB00546C3F30803002686F31188CA
:1015E000BFF36F8F02F07F40B0F17F4F11D102F057
:1015F0000C0008280DD010074CBF0D460126002214
:10160000033B8DF80720032B4DD8DFE803F004657A
:10161000696D3546F3E7384BDA6A910743D4DA6AE5
:10162000002A40DBDA6A52003DD55A69A96942F4C2
:1016300080725A61BFF34F8FBFF36F8F5A6931F8D1
:10164000021C22F480725A61BFF34F8FBFF36F8F79
:101650004DF60272914209D09A6AD2B242B10DF1AE
:10166000070201212846FFF755FF0AE02C681BE01E
:101670009A6A12F47F4F06D00DF107010120FFF79F
:1016800087FF044610E09A6AB2F5803F0BD39A6A4E
:101690009A6A9A6A9A6A9A6A9A6A9A6A6FEA024295
:1016A0006FEA12429A6200249DF8073093B9202213
:1016B000294602A802F0CBFE099BBEB1C3F3080283
:1016C00022B96FEA53236FEA4323099302A9204604
:1016D00002F09CFE0AB070BD0DF107020021C1E7C7
:1016E0000DF107010020CAE7034BD0E723F4FF7395
:1016F00023F00103E9E700BF00ED00E0024A53696F
:1017000043F010035361704700ED00E0EFF30880F1
:10171000EFF3098101B57246FFF758FF01BD00BF25
:10172000044800232021C2180133302B82F8001313
:10173000F9D1704700E100E0002080F31488BFF386
:101740006F8FFFF76DFB00200D490860BFF34F8FCF
:101750000C4880F3088800F02BF8202080F31188D3
:1017600009484FF40461401880F30988EFF31480AE
:101770000221084380F31488BFF36F8FFFF7E4FD65
:1017800094ED00E080180020C00A00200749D1F83D
:1017900090200023C2F307221846934200DB7047D3
:1017A000C1F89830C1F8A0000133F6E700ED00E081
:1017B00008B572B6002383F31388FFF7E7FF144BD5
:1017C0004FF0FF32C3F88020C3F88420C3F888208C
:1017D000C3F88C20C3F89020C3F89420C3F8982055
:1017E000C3F89C20C3F88021C3F88421C3F8882162
:1017F000C3F88C21C3F89021C3F89421C3F8982131
:10180000C3F89C2162B6BFF34F8FBFF36F8F08BD43
:1018100000E100E0084B9B6883420BD1EFF30583A6
:1018200043B1064B5A6842F080525A605A6A22F419
:1018300000425A6202F0E2B87008002000ED00E0B9
:10184000024B034A0348012100F070B80000042055
:1018500000000020344D0000426E054B403A1A60F3
:10186000044A4021C3E901121846012100F068B87A
:10187000D007002000000B15F0B5204E00258D424A
:1018800039DA446874B353B104F1FF3C14EA0C0F25
:101890002FD11F2C2DD907681CEA070F29D1202C26
:1018A0000768D0F808C05FFA82FE1ED9B4F1004F75
:1018B0001DD8013CB4FA84F4C4F11F046400BEF1E5
:1018C000070F4CEA040C14D827F01F04144344F00B
:1018D0001004C6F89820C6F89C404CF00104C6F8E5
:1018E000A040013201350C30C9E70824E7E73E2467
:1018F000E5E76FF015021046F0BD00BF00ED00E017
:10190000044B0522C3F89420BFF34F8FBFF36F8FB2
:10191000704700BF00ED00E0BFF35F8F024B002275
:10192000C3F89420704700BF00ED00E010B5034CF1
:1019300001232278FFF7A0FF207010BD800A00204D
:1019400008B5094A00231278FFF796FF10F1160F29
:1019500002D0064A072800DD08BDC2F89800C2F888
:10196000A0300130F6E700BF800A002000ED00E063
:1019700014490868082810B521D8FFF7CDFF124C8C
:1019800049680022904201F10C0105D10F4B1870FB
:10199000FFF7B6FF002010BDC4F8982051F80C3CAA
:1019A00023F01F03134343F01003C4F89C3051F895
:1019B000043C43F00103C4F8A0300132E2E74FF0E9
:1019C000FF30E8E7404D000000ED00E0800A002015
:1019D00010B54FF02003EFF3118083F31288BFF3AB
:1019E0006F8F114A0123C2F840354FF080424FF00B
:1019F0008051C2F87835D1F83041082C08D1D1F89F
:101A00003411052904D8094C615C09B1C2F8383693
:101A10004FF080430122C3F8802580F31188BFF383
:101A20006F8F002010BD00BF00E00140114F00008B
:101A30004FF08043C0B2C3F81C05BFF34F8F054978
:101A4000054BCA6802F4E0621343CB60BFF34F8FCB
:101A500000BFFDE700ED00E00400FA0520B1034BF4
:101A6000800143F001031847704700BF004D00009C
:101A7000084B70B5C31A0D4607499B1004465943DD
:101A80000648402202F025FD2B4601462046BDE8CF
:101A900070401847F0070020B76DDBB61C4B000004
:101AA00073B50C4C0C4A4023041B00930D460B46A7
:101AB0000A49A41061430646094802F037FD011E99
:101AC00005DA30462B4602B0BDE87040184702B038
:101AD00070BD00BFF007002099450000B76DDBB670
:101AE0001C4B0000002270B5012104461046FFF790
:101AF0000FFC0F4800F018FE0E4B984215D102F073
:101B0000C5FD26690C49304602F094FB00280BDB2A
:101B1000012535642469084904F11C0002F08AFBA0
:101B2000002801DBE564002070BD6FF00400FBE7D6
:101B3000711B00000000AD0B604D000070B5014648
:101B40000C2309484B43C418D4E90E5600224033F5
:101B5000A263184402F0AAFC2DB132462B4603487A
:101B6000BDE87040184770BDF00700201C4B000016
:101B700010B1012804D07047034B1B6C5B0701D1E7
:101B8000FFF7DCBF704700BFF007002008B54FF03B
:101B90002003EFF3118183F31288BFF36F8F124A92
:101BA000136843F002001060DA0708D481F311884B
:101BB000BFF36F8F0120BDE8084002F074BD4FF005
:101BC0008043D3F80C24D3F80C34D307EED5074860
:101BD00002F06CFC81F31188BFF36F8F0020BDE829
:101BE0000840FFF7ABBF00BF4008002030080020CE
:101BF0001FB500220123CDE90223094ACDF800D008
:101C00006B46CDF804D002F0C0FC002805DB4FF491
:101C100080420023684601F0E1FB05B05DF804FB5B
:101C2000B7450000094BBFF35B8F53E8002F22F04C
:101C3000020143E800100028F7D1BFF35B8FD30700
:101C400002D4012002F06BBD704700BF40080020A5
:101C50002DE9F0413849BFF35B8F0746012251E877
:101C6000003F41E800200028F9D1BFF35B8F33B972
:101C7000324933484B60CB608A6002F0EEFA7B1E3B
:101C8000012B2BD8012F07D14FF08043D3F81C3400
:101C900003F00303012B21D002F013FE0546F8B92F
:101CA000284B1B78E3B14FF080430222C3F808238E
:101CB0000646DFF894804FF08044D4F81834D4F806
:101CC0001824D20316D503F00303012B01D0012FF2
:101CD00010D15DB386F31188BFF36F8FBDE8F0813B
:101CE0004FF02003EFF3118683F31288BFF36F8F59
:101CF0000125DEE7ADB13046FFF7E4FAD4F8183538
:101D0000002BDAD1D4F80421002AD6D0C4F804314B
:101D1000D4F804310123C4F81835C8F88031A36021
:101D2000CBE70021212001F049FEE7E74FF0804397
:101D30000222C3F80423D1E7EC070020DC070020CF
:101D40000C080020810A002000E100E030B5406866
:101D5000057B01F01F04B2F5001F85B044EA45146D
:101D600005D1204600F062FF002005B030BD0025FF
:101D7000B2F5800FCDE9025514D1B3F1007F0CBF4D
:101D8000042305238DF808300023194602AA2046B3
:101D900000F08AFD1F4B984239D10121204600F006
:101DA000FDFEE1E7B3F1C06F26D0B3F1007F14BFB1
:101DB000012302238DF808308368CB40D907E3D490
:101DC000B2F1A07FE0D16209012A04F01F03124A98
:101DD00003F5E07318BF4FF0A04252F82330DB0741
:101DE000D2D40DF107052946204600F083FE0B4BA7
:101DF000984203D00395C7E70323DBE7284600F0AA
:101E0000C7FE044B9842F5D06FF00B00ADE76FF0C2
:101E10001500AAE70000AD0B000300500400AD0B55
:101E200010B500F0A5FE044668B900F079FE084B35
:101E300098420AD10748214600F056FE2246052165
:101E40000620FFF765FA002010BD6FF00400FBE7E5
:101E50000000AD0B591E0000420970B5034602D0C8
:101E6000012A17D070BD0D4E326951680029F9D092
:101E700003F01F0301250C689D400029F2D08A68F9
:101E80002A4002D04B68304698472CB1236821463F
:101E90001C46F2E7024EE7E72346F8E74C4B00000A
:101EA000344B00002DE9FF4147683B7B01F01F05E3
:101EB00045EA43150E4628460DF10301144600F08D
:101EC00019FE14F4403F80460BD1284600F0D6FEA0
:101ED0003D4B984503D19DF8030000F053FE0020D0
:101EE0000CE00023194602AA2846CDE9023300F08F
:101EF000DBFC354B984204D06FF0150004B0BDE810
:101F0000F081804503D19DF8030000F03BFEA30360
:101F10004BD540F206332340B3F5837F19D00CD85C
:101F2000062B17D004D8ABB1022BE5D1042311E066
:101F3000B3F5807FE0D101230CE040F2022293420E
:101F400027D0B3F5407F26D0B3F5007FD4D102234C
:101F500000E007238DF8043084F48033C3F300439A
:101F6000E0068DF8053054BFC4F34013032321036A
:101F70008DF8063011D57A680123B340C2F80835D0
:101F8000002201A9284600F03DFD0F4B9842A6D043
:101F9000B2E70523DEE70323DCE7620341BF012349
:101FA0007A68B340C2F80C35EAE7E3064FF0000365
:101FB00054BFC4F3401403241A4601A928468DF8DF
:101FC000044000F071FCE0E70000AD0B70B50123A8
:101FD00083400E4ABFF35B8FDC4352E8001F01EAE7
:101FE000040542E80056002EF7D1BFF35B8F4FF493
:101FF000803282400648C0F80823BFF35F8FBFF3EA
:102000006F8F0B4214BF0120002070BD60080020BC
:1020100000100140F8B51B49044622F07F450868CE
:10202000C1E90023A5F50013101AB3F5400F0FD333
:1020300001F02AFEA30003F1804303F58833D3F8AF
:10204000402595421DD14FF40002C3F8402512E00F
:102050000D4B1B681A0A1B065E190C4B42F1000758
:10206000C3E9006701F010FE094A04F5A87352F8AD
:1020700023309D4205D1064A4FF48033A340C2F875
:102080004433F8BD7801002064080020800100205E
:102090000010014011B3BFF35B8F0123104A83404E
:1020A00052E800CF4CEA030C42E800C10029F7D106
:1020B000BFF35B8F0B4A4FF480338340C2F8043385
:1020C000094BBFF35B8F1B68BFF35B8FC340DB071C
:1020D00042BF064B4FF40032C3F80021704700BFE7
:1020E00060080020001001405C08002000E100E0D2
:1020F0000D4B1868010A0006BFF35F8F0B4BD3F836
:102100000435181841F10001B3F5801F0AD2084BBD
:10211000D3E90023904271EB030303D210F18070E6
:1021200041F10001704700BF640800200010014029
:10213000800100202DE9F74F14461D460746FFF7A2
:1021400045FF0090FFF7D4FFA04271EB05037AD260
:10215000464B201A65EB0101984271F1000180F0B5
:102160008180434B03EB0713D3E902239D4208BF51
:10217000944253D04FEA870A0AF1804A07F1500986
:102180000AF5883A4FEA89091FFA89F924F07F484D
:1021900009F180494FF48033DAF84005354A09F5F2
:1021A0008839BB404646D2F804B5A0EB0B0020F0BE
:1021B0007F402BF07F410128CAF8401505D10193DB
:1021C000132002F07EFC2B4A019B0BF1020CA6EBC4
:1021D0000C0020F07F40B0F5000F88BF664600205D
:1021E000C9F80000D9F80000C2F8443326F07F4057
:1021F000CAF84005D2F80405834506D0301A0238E3
:1022000020F07F40B0F5000F1BD8A6EB080626F0A3
:102210007F46361945F1000334461D4614490C9893
:102220003B0101EB0712C8500D9B5360C2E9024508
:10223000002438460099FFF72DFF204603B0BDE883
:10224000F08F3046AFE701230B4ABFF35B8FBB40F3
:1022500052E8000F184342E800010029F8D1BFF30B
:102260005B8FDBE76FF01504E3E700BF01000001BF
:1022700068010020001001405C08002073B5194B74
:10228000194D00244FF0FF304FF0FF31C5F80845DD
:10229000C3E902014FF48033C5F80433134B02261F
:1022A0004FF400320121C5F804631120C3F88021E6
:1022B0002246FFF72DF81120FFF70EF80C4A0123F4
:1022C000AB602B6013600B4B0B4A0093019400230F
:1022D0002046FFF72FFF3046FFF7BAFC204602B03A
:1022E00070BD00BF680100200010014000E100E067
:1022F0006008002015200000FFFF7F002DE9F74354
:10230000334CD4F804339A070BD5D4F8043143B1D5
:10231000304A0023C4F80431D4F80431136801337F
:1023200013604FF02003EFF3118283F31288BFF3A1
:102330006F8FD4F80433DB0329D5BFF35B8F264BB3
:1023400053E8001F21F0010043E80005002DF7D1FC
:10235000BFF35B8F11B9D4F84031C3B10025C4F885
:102360004051D4F8403182F31188BFF36F8FFFF7EB
:10237000BFFE4FF02003EFF3118283F31288BFF307
:102380006F8F164BD3E90267B042B94106D282F390
:102390001188BFF36F8F03B0BDE8F0834FF0FF38B3
:1023A0004FF0FF39D3E90010C3E902891D604FF4F3
:1023B0008033C4F8483382F31188BFF36F8F00294C
:1023C000E9D0009032463B4628468847E3E700BF05
:1023D00000100140640800205C0800206801002013
:1023E000431C13B521D0012821DDB0F5000F20DA00
:1023F000441EFFF77DFE104BD3E90013421AB2F5DD
:10240000000F0E4828BF002401322244824228BF18
:10241000024652184FF0000009490190009143F123
:102420000003FFF787FE02B010BD0448E0E7002478
:10243000DFE7024CDDE700BF78010020FFFF7F00EF
:102440001520000008B5FFF753FE024B1B68C01AA9
:1024500008BD00BF780100204FF08053D3F8302131
:10246000082A06D1D3F83431052B02D8024AD05CB1
:1024700070470020704700BF484F000008B54FF07C
:102480008053D3F83021082A4ED14FF080420021EA
:10249000C2F80C11C2F81011C2F8381502F540420A
:1024A000D3F80414C2F82015D3F80814C2F8241580
:1024B000D3F80C14C2F82815D3F81014C2F82C1550
:1024C000D3F81414C2F83015D3F81814C2F8341520
:1024D000D3F81C14C2F84015D3F82014C2F84415E0
:1024E000D3F82414C2F84815D3F82814C2F84C15B0
:1024F000D3F82C14C2F85015D3F83014C2F8541580
:10250000D3F83414C2F86015D3F83814C2F864153F
:10251000D3F83C14C2F86815D3F84014C2F86C150F
:10252000D3F84434C2F87035FFF796FF18B1254B45
:10253000254AC3F88C26FFF78FFF18B1234BFB22E7
:10254000C3F81825FFF788FF70B14FF080414FF0B6
:102550008053D1F8E42ED3F8583222F00F0203F062
:102560000F031343C1F8E43EFFF776FF20B1184B89
:102570004FF40072C3F840264FF08053D3F8303147
:10258000082B1AD14FF08043D3F80024D20744BF60
:102590006FF00102C3F800244FF08053D3F83431B8
:1025A000052B02D80B4AD35C3BB14FF01023D3F874
:1025B00008224FF08043C3F85825074B074A1A609A
:1025C00008BD00BF005000404881030000F00040FB
:1025D00000900240424F0000280000200090D003ED
:1025E00070B501250268BFF35B8FB2FA82F3C3F1C5
:1025F0001F03DBB205FA03F422EA040450E8006F7B
:10260000964204D140E8004CBCF1000FF6D1BFF374
:102610005B8FE7D101480B7070BD00BF0000AD0BB0
:1026200010B50368CB40DB0714D401238B4002684C
:10263000BFF35B8F43EA020150E8004F944204D19C
:1026400040E8001CBCF1000FF6D1BFF35B8FEED168
:10265000014810BD0148FCE70000AD0B0400AD0BC4
:10266000F7B5044618B1012822D003B0F0BD4FF0F1
:1026700080430222C3F80823C3F80401D3F80421DD
:102680000122DA60074601238DF8073042F2107507
:102690004FF08046CCB1012CE7D1C7B3D6F80C344B
:1026A00003F001033B70D6F80C34DA0321D516E0B1
:1026B0004FF080430022C3F80803C3F80021D3F889
:1026C000002158600DF10707DDE7B7B1D6F81834DF
:1026D00003F003033B60D6F81834D803C5D59DF842
:1026E0000700012803D101F0CFFF013DD2D1012C19
:1026F000BBD10C4B00225A71B7E7D6F81834D90376
:10270000B3D5012001F0C0FF013DF6D1ADE7D6F809
:102710000C34DB03EDD5012001F0B6FF013DF6D10D
:10272000E7E700BF68080020044B1A7922B90122AC
:1027300018609A8002487047024870476808002075
:102740000000AD0B0C00AD0B10B54FF08043D3F87B
:1027500000216AB10022C3F80021D3F80021012230
:10276000C3F80823114B587910B95A711B68984760
:102770004FF08043D3F8042172B10022C3F8042142
:10278000D3F80421D3F81824D3F81814920704D1ED
:102790000122C3F818259A6010BD0222C3F808234D
:1027A000024BBDE810401B68012018476808002054
:1027B000036803F01F025B09012B0260024818BF87
:1027C0004FF0A040704700BF00030050034B08309B
:1027D00033F81000C0F34010704700BF2C000020F9
:1027E00070B500F108030C4C34F81330DA050546D7
:1027F0000E4607D5C3F3432304EBC30254F833302A
:1028000052689847A3682BB1E26831462846BDE874
:102810007040184770BD00BF2C00002010B4124A51
:10282000083032F81030D9051BD5C3F3432123F407
:10283000F85322F8103002F10E04002034F8023F61
:1028400013F4807F03D0C3F34323994209D00130AE
:102850003028F3D1002342F83130044810BCFFF790
:10286000DFBE10BC704700BF2C000020A00000207D
:1028700038B50246FFF7AAFF094C02F1080540B13E
:1028800034F8153007495B0B03F5A273002041F8BB
:1028900023001046FFF7C2FF002324F8153038BD8F
:1028A0002C000020006000402DE9FF410446164640
:1028B0001D4601B34E4F00F1080837F818309B074A
:1028C00002D5FFF783FF10BB0023CDE900338DF85D
:1028D0000E308DF80F300DF10F020B4620460DF132
:1028E0000E0101F01EFF37F8183023F0020343F009
:1028F000010327F8183046B33D4B96F800C07268C4
:1029000004F1080733F81710880702D5AAB139482F
:102910001DE021F02001C904C90C23F8171062B191
:10292000BCF1030FF3D872681678BCF1000F11D117
:10293000314A06F5A27642F826C033F8172022F075
:102940001C0242EA8C0223F8172045BB2B4804B036
:10295000BDE8F081B20002F1804202F5C04241EAD6
:102960004631D2F8100520F00300C2F81005D2F865
:10297000100520F44F3020F44070C2F810052002FA
:10298000D2F810E500F47C5040EA0C4040EA0E001A
:1029900041F0200123F81710C2F81005CDE7D5E962
:1029A00000672046FFF73AFF002ECFD0104DD5E943
:1029B0000023964201D19F4218D011480DF10F011A
:1029C000FFF70EFE0D4B9842C1D19DF80F2045F840
:1029D000326005EBC20308345F6035F8143043EA17
:1029E000422343F4807325F81430AFE70022EEE76A
:1029F0002C0000200400AD0B006000400000AD0B77
:102A0000A0000020F0B5044685B0154619B3334E3A
:102A100000F1080736F81720930703D4FFF7D6FE16
:102A2000002858D112F01C0F02D04B78012B52D045
:102A300001238DF80F300023CDE900134A1C8B1CB5
:102A400020460DF10F0101F06CFE36F8173043F00F
:102A5000030326F8173015B9214805B0F0BD1F4E05
:102A600004F1080736F81700830734D595F800C03D
:102A70006146890020F0200001F18041C00401F589
:102A8000C041C00C26F817000023C1F810356A7841
:102A9000002AE1D0D1F81035AD7823F4991323F44E
:102AA000F853C1F81035D1F810E5230203F47C5334
:102AB000120402F4403243EA0E0313432A0502F4DF
:102AC000801240EA4C30134340F0200026F81700F3
:102AD000C1F81035C0E70348BFE700BF2C00002055
:102AE0000000AD0B0400AD0B014BC3E902017047C0
:102AF0002C00002008B50246FFF768FE38B1054BF0
:102B00000548083233F812305B0B0B7008BD0348E0
:102B1000FCE700BF2C0000200000AD0B0400AD0B53
:102B200038B50F4C94F87850BDB96022294604F1AD
:102B3000100001F097FC0620FEF7CEFB094B0A4877
:102B4000C3F87C51D3F87C214FF00042C3F8042332
:102B5000012384F87830636738BD0448FCE700BF80
:102B60002C000020006000400000AD0B0500AD0B04
:102B7000034B93F87800003818BF0120704700BF5E
:102B80002C00002001460148FFF74ABD9C000020B0
:102B900001460148FFF724BD9C00002037B50446DC
:102BA000FFF714FE04F108021E4B33F81230E8B1AF
:102BB00013F002051AD15B0B9A0002F1804000F578
:102BC000C24002F1804202F5C04205600068D2F8BE
:102BD000100540F00100C2F8100529B1012202FAE7
:102BE00003F3114AC2F8043303B030BDC3F38203C8
:102BF000042B12D0052B12D001A80194FFF7D8FDA9
:102C0000019BD0F81015D94001F001010231204696
:102C100003B0BDE8304001F0CDBD0321F7E702214C
:102C2000F5E700BF2C0000200060004008B5024618
:102C3000FFF7CCFDC0B102F108010E4B33F81130A3
:102C4000990711D45B0B01229A409B000A4903F1BA
:102C5000804303F5C043C1F80823D3F8102522F0C0
:102C60000302C3F8102508BDBDE808400021104646
:102C700001F0A0BD2C0000200060004013B50E4BF9
:102C800000F10802044633F81230DB0711D5FFF7D4
:102C9000CDFF2046FFF7ECFD01A80194FFF788FD6A
:102CA000019B03F5E073022240F82320034802B0A1
:102CB00010BD0348FBE700BF2C0000200000AD0B57
:102CC0000400AD0B2DE9F04F684B694869490026B7
:102CD00087B0012234461D6835B1D0F8045315423F
:102CE0001EBF1C601D68164304338B424FEA42022C
:102CF000F1D1DFF87C91D9F87C31002B00F099807C
:102D00004FF0A043D3F820250492C3F82025D3F830
:102D100020280592C3F820284FF000080DF1100A72
:102D20004FEA481300934FF0010B49E0009B524AD1
:102D300094FAA4F4B4FA84F41C44E00804F10803FF
:102D4000039432F813701AF8003004F007020BFAFB
:102D500002F223EA02030AF8003003A8FFF728FD75
:102D6000039B03F5E073B90850F82330C7F38205DD
:102D70004A072F46C3F301432CD520463946DDB21E
:102D8000FFF72EFD03A80394FFF712FD039B03F545
:102D9000E07350F82330C3F301439D4207D1002173
:102DA000204601F007FD2946204601F003FD03A857
:102DB0000394FFF7FDFC039B0BFA03F3C0F82035E7
:102DC0005AF82840002CB1D1B8F1000F1DD14FF0B6
:102DD0000108A5E7022B0CD10321204601F0EAFCF3
:102DE00005F00503012BE2D139462046FFF7F8FC38
:102DF000DDE702212046019301F0DCFC032DF3D036
:102E0000019B032BD3D1022DEDE74FF0A042C9F86F
:102E10007C41D9F87C311949D2F820350493C2F8A5
:102E20002035D1F8202505921343C1F820257FF4E1
:102E300073AF012416B907B0BDE8F08F96FAA6F378
:102E4000B3FA83F304FA03F29B0003F1804303F522
:102E5000C04326EA0206D3F81005D3F81015C0F3D4
:102E60000520C1F30141FFF7BBFCE3E7006100402F
:102E700000600040206100402C0000200003005052
:102E80000F4B70B553F82040013053F82060A64234
:102E900000D870BDD4E90035284698476DB138B1E7
:102EA0000028B8BF4042EB68FF28A8BFFF20187079
:102EB000EA68537843F0010353700834E7E700BF32
:102EC000E04D000008B50A4B012203201A70FFF7FD
:102ED000D7FF00F04DFF0420FFF7D2FF00F030F9DC
:102EE000FDF778FA034A137B23F00103137308BD3F
:102EF000810A00200802002008B50348034A002187
:102F0000121A01F08DFC08BD68010020840A00201F
:102F100070B5002386B00122CDE90423134E144D71
:102F200001930F22CDE902321249182303FB005509
:102F300006EBC01604464FF4C07000FB04110E4BA4
:102F400000954FF4A072304600F0C8F8737B0B4A2E
:102F5000EE6023F0040373734FF4046304FB033344
:102F600013442C756B6006B070BD00BF8801002053
:102F70007008002000130020F9310000C00A002072
:102F800080B50020A6B0FFF77BFF2D4B83F30888A8
:102F90002C4D2D4E6B692D4F43F400736B61002453
:102FA000E02385F82230EC772C766C76AC7685F8C9
:102FB00020406B6A43F4E0236B6285F82340FEF700
:102FC0009DFBFEF76BF94FF0FF33AB62EB62FEF750
:102FD000CFFCFEF735FC40F20113ADF8243006AB10
:102FE000B360CDE91F44229401F0F3FB0120FFF709
:102FF00047FF0220164DFFF743FF00F051FC154B31
:10300000F5610593012314490094CDE903434FF47E
:1030100080623B46CDE90144284600F05FF86A7BB8
:10302000064622F0040228466A7301F0C2FC2046DC
:10303000FFF76EFF3A4631462846FEF727FA00BFF3
:103040000013002000ED00E070080020C52E0000F5
:10305000080200204E4F00008014002038B5064CB6
:10306000064D0020AC4200D338BD204601F0DCFB09
:103070000028F9DB1C34F5E71601002016010020BA
:1030800073B50C464FF02005EFF3118185F31288DC
:10309000BFF36F8F45695DB125602B68436183691C
:1030A00001338361002081F31188BFF36F8F11E03A
:1030B00052EA030603D125606FF00B00F3E7CDE978
:1030C00000230246083000F0F5FA18B9024B9B685D
:1030D0005B69236002B070BD700800202DE9FF41DC
:1030E0000E9E0673042646730D9E867300F15805E6
:1030F0000F46D61DC0E916550C9A002526F0070686
:103100004037C0E90655C0E919768560C573C566C4
:1031100006F1400802920B9A019288440A9A0092A2
:1031200042460446FEF780F9044B65659B6803B18F
:103130001B6F2367404604B0BDE8F0817008002093
:103140002DE9F043294C2A4D87B02646AE4204F1C2
:1031500030040FD300F074FB244CDFF898904FF448
:10316000004640F2E737AC4220D307B0BDE8F04359
:1031700000F07ABB54F8043C059354F8103C0493D7
:1031800054F8143C039354F8183C029354F81C3C34
:10319000019354F8203C009354E90A2354E90C01AC
:1031A000FFF79CFF54F8303C5E65CEE7636A5A1C1B
:1031B0000DD023EAE37300213846C3FB060151EA30
:1031C000C333D4F8008004D1404600F0E9FA30342B
:1031D000C9E74FF47A720023FCF792FF02460B46D0
:1031E00008F11800494600F0D1FCF0E7E44C00007B
:1031F000E44C00001F49000008B50B4C0B4D4FF08C
:103200002002EFF3118382F31288BFF36F8F01F076
:1032100028FC2B78A06113B9FEF746F8EFE7FDF71D
:1032200083FE0028EBD1F7E770080020810A002018
:103230002DE9F341044617461E464FF02003EFF3F5
:10324000118883F31288BFF36F8FC368334A7BB151
:1032500080689168884219D057EA060318D188F32C
:103260001188BFF36F8F6FF00F0002B0BDE8F081DF
:10327000916891F90E1021610133E3609368A360B6
:1032800088F31188BFF36F8F0020EEE72169F2E722
:1032900091F90E1090F90E309942A8BF19466FF0BF
:1032A0007E029142B8BF11468B422EDD01F016FB23
:1032B0000546CDE900761A482246414600F0FAF963
:1032C0000028E1D04FF02003EFF3118683F312883A
:1032D000BFF36F8FA068D0B1236821699C420AD0E8
:1032E0004BB193F90E309942A8BF19466FF07E0397
:1032F0009942B8BF194601F0F1FA40B10848314689
:1033000000F03CFA6FF00A00AFE70025D1E7002D8E
:10331000F4D186F31188BFF36F8FF3E770080020B4
:10332000820A002038B5836804466BB3194A926854
:1033300093422CD1C368012B03D9013BC360002009
:1033400038BD4FF02003EFF3118583F31288BFF3EC
:103350006F8F0169806801F0C1FA204601F039FBE6
:10336000A06058B190F90E2022610022826701F01E
:1033700020FB0948294600F001FAE0E7E06085F308
:103380001188BFF36F8FDAE76FF01500D8E74FF0C1
:10339000FF30D5E770080020820A002038B50446C7
:1033A0004FF02003EFF3118583F31288BFF36F8F83
:1033B00001F00FFB48B10022826701F0FAFA2946BA
:1033C0000548BDE8384000F0D9B9D4E902329A4244
:1033D00018BF0133A360F2E7820A002013B54FF053
:1033E0002004EFF3118184F31288BFF36F8F846898
:1033F00044B1013C846081F31188BFF36F8F0020DA
:1034000002B010BD52EA030406D181F31188BFF364
:103410006F8F6FF00F00F3E7CDE9002302460248FB
:1034200000F048F9ECE700BF820A002038B5074DEC
:103430002C6854B1FFF706F8054B04441C6128685A
:103440000021BDE8384001F01CBB38BDA0080020B9
:103450007008002038B50D4D2B4653F8204F9C4284
:1034600000D004B9EC68AB6838B95A7BD20604D1F5
:10347000A26912B9DA897F2A05D89C4202D0204677
:10348000FFF7D4FF2346EB6138BD00BF7008002072
:1034900070B590F90D20437B002A014604DA03F051
:1034A0007F03437301F029FA4B7B154A63F07F03D6
:1034B00010464B7350F8203F546A834208BF0023E4
:1034C00023B9C1E90004216051620CE091F90E506A
:1034D00093F90E60B5420ED0AE420CDD5868C1E9DA
:1034E0000030016059609068431A5842BDE870404E
:1034F0005841FFF7AFBF9C42E3D01B68E0E700BF35
:103500007008002070B490F90D30427B002B29DB4D
:10351000D30627D183692BBB134962F07F02427324
:103520000A4652F8204F944218BF23464C6A23B9EA
:10353000C0E90024206048620CE090F90E5093F935
:103540000E60B5420AD0AE4208DD5A68C0E90032CA
:103550001060586070BC0020FFF77CBFA342E7D02A
:103560001B68E4E770BC70477008002008B590F94C
:103570000D20437B002A014604DA03F07F034373E6
:1035800001F0BBF9044B9868431A58425841BDE812
:103590000840FFF75FBF00BF7008002070B51546F8
:1035A0001C46064601F0DDF9B4F1FF3F08BFB5F156
:1035B000FF3F08D02A46234606F118000249BDE81D
:1035C000704000F0E3BA70BD1F490000F8B5044632
:1035D0000D464FF02003EFF3118783F31288BFF3FA
:1035E0006F8F00264FF4004C40F2E73031464FF425
:1035F0007A720023E4FB0C01FCF782FDB44202DD89
:103600000228B8BF0220074A074B1060074A986893
:103610001E611560FFF70AFF87F31188BFF36F8FF4
:10362000F8BD00BFA0080020700800209C08002002
:1036300038B54FF02003EFF3118583F31288BFF301
:103640006F8F174B174A9C6811688C4207D1204630
:10365000FFF7ECFE85F31188BFF36F8F38BD0021B3
:103660001160114A1268C2B1E2897F2A15D8627BC3
:10367000D20612D10D4A94F90E10126891420CDB59
:103680000B4A944209D01A69824203DC2046FFF7B4
:10369000FFFEDCE7121A1A61DCE70022FBE700BF3D
:1036A0007008002098080020A00800209C08002036
:1036B0008801002070B50C480C4D86682E600C46C1
:1036C0001146DDE904234FF02006EFF3118586F360
:1036D0001288BFF36F8F8068FFF760FF2046BDE858
:1036E0007040FDF74DBE00BF700800209808002014
:1036F000F8B504464FF02003EFF3118683F31288E8
:10370000BFF36F8F437BDA0649B219D18569BDB922
:1037100003F07F03437301F0F0F8437B164A817393
:1037200063F07F034373134653F8200F984218BF8A
:103730000546506A5DB9C4E900300460546211E086
:10374000A173002086F31188BFF36F8FF8BD95F940
:103750000E70B9420BD08F4209DD6B68C4E900538B
:103760001C606C600120FFF775FE0120EAE7A842AB
:10377000E1D02D68DEE700BF7008002049B9EFF303
:10378000058030B9054BDA699B689A4201D0FDF794
:10379000F7BD81F31188BFF36F8F70477008002069
:1037A00010B54FF02002EFF3118482F31288BFF3BB
:1037B0006F8F427B510704D484F31188BFF36F8F5E
:1037C00010BD22F004024273FFF79CFE214602481E
:1037D000BDE81040FFF7D2BF820A002070B5044652
:1037E000183001F028F94FF02003EFF3118683F32E
:1037F0001288BFF36F8F94F90D20637B002A05DADE
:1038000003F07F036373204601F077F80B4D637B71
:10381000A86843F010036373031B58425841FFF735
:1038200019FE86F31188BFF36F8FAB68A34203D1F3
:10383000BDE8704001F0F5B870BD00BF7008002011
:103840004FF02003EFF3118183F31288BFF36F8FE2
:10385000044B9A68D37B013BD37381F31188BFF388
:103860006F8F70477008002010B54FF02003EFF302
:10387000118483F31288BFF36F8F084B9A68D37B50
:103880000133D3730020FFF7E5FD84F31188BFF304
:103890006F8FBDE8104001F0C4B800BF7008002071
:1038A000044B002103F12002C3E908220846FFF778
:1038B0008DBE00BF70080020F8B54FF02003EFF375
:1038C000118583F31288BFF36F8F19498868437B92
:1038D00003F07F03437301F010F88B685A7B0846AE
:1038E00062F07F025A7350F8202F4C6A824208BF60
:1038F000002222B9C3E9000423604B620CE093F973
:103900000E6092F90E70BE420ED0B7420CDD5168C7
:10391000C3E900210B6053600120FFF79BFD28469F
:10392000BDE8F840FDF72CBDA242E3D01268E0E705
:103930007008002050EA01032DE9F04105460E46CB
:1039400003D1FFF7B9FF00202CE0831C71F1FF3396
:103950002ADB01F0B2F844194FF02003EFF311888D
:1039600083F31288BFF36F8F114F124BB868186042
:10397000FFF7FCFDB86810492A463346183000F0BE
:1039800005F9BA68537B43F0100353734046FDF7C3
:10399000F7FC01F092F8201A63EB0303012873F19E
:1039A0000003D0DBBDE8F0816FF00104241AD3E7F7
:1039B00070080020980800201F490000B1F1FF3F67
:1039C00008BFB0F1FF3F08B506D1084B9868FFF774
:1039D00005FF4FF0FF3008BDFFF7ACFF4FF47A73DF
:1039E00080FB0303C00B40EA4340F4E7700800206B
:1039F000014B9868704700BF700800202DE9F04126
:103A000004464FF02003EFF3118683F31288BFF3CF
:103A10006F8F037BD9070BD586F31188BFF36F8FA8
:103A2000404080F311884FF0040002DFBDE8F081D0
:103A3000437B1A0704D586F31188BFF36F8FF5E730
:103A400023F0200242F00801D20920D14173A3687B
:103A500013B1204600F059FF04F1180000F0EBFF0D
:103A600004F158074FF00008A56DBD4200D0B5B96C
:103A70000120FFF7EFFC104B9B68A342DBD1EFF373
:103A80000583002BD7D13046FDF77AFCD3E703F04E
:103A90005F0343F00803437300F02FFFD7E7284686
:103AA00000F033FF05F1180000F0C5FFC5F878807D
:103AB0002846FFF727FDD7E77008002008B506481D
:103AC000064A0749121A00F0ADFEBDE80840054A53
:103AD0000549064800F0A6BE00000020680100204D
:103AE000844F000000000000844F00000000002010
:103AF000034B1B680BB9FEF7A5BC0020704700BF45
:103B0000A408002010B5114B1C689C420AD1FFF795
:103B1000EFFF6FF000400E4B1B6913B19842A8BF36
:103B2000184610BDFFF7E4FF002CF2D0D4E90432B0
:103B30001B1A62EBE072B3F1004F72F10001E8DA98
:103B4000002AACBF18460020E5E700BFA80000200F
:103B50007008002030B570B10B4B5B6898420AD0FA
:103B6000036843B1D3E90421D0E90445121941EBBC
:103B70000501C3E90421D0E9003213605A60002333
:103B8000C0E9003330BD00BFA8000020B3F1FF3F03
:103B900008BFB2F1FF3FF8B504461D46164661D096
:103BA00081604FF02003EFF3118783F31288BFF396
:103BB0006F8F013275F1FF3324DA3049D1E90020EB
:103BC0006FF001039B1A4FF0FF3262EB00009E1B67
:103BD00060EB0500012E70F1000301DA01260020E0
:103BE000C4E90460264ED6F800C07568B44508BF25
:103BF0004FF0000CBCF1000F0DD1C4E900652C6042
:103C000074601CE0FFF774FF013645F100053618BB
:103C100045EBE070E4E7DCE90420D4E904319342A9
:103C200071EB000E1FDAD21ADCF8043060EB0100F1
:103C3000CCE90420C4E900C31C60CCF8044033681C
:103C4000B3420BD09C4209D1FFF75CFF18B10D4B7A
:103C50001B69834202D00021FEF7C2FB87F3118863
:103C6000BFF36F8FF8BD9B1A61EB0001AC45C4E94F
:103C70000431C2D0DCF800C0BCE700BF88020020DD
:103C8000A8000020700800202DE9F8430446FFF743
:103C9000CFFC4FF02003EFF3118683F31288BFF3BC
:103CA0006F8F234FDFF88C80D8F80000224A3C60E9
:103CB0004045D2E9003E4FEAE4710BD050B1D0E963
:103CC000045CAC4271EB0C0916DA2D1B6CEB010C99
:103CD000C0E9045CE3184EEB01010024C2E90031A5
:103CE0003C60FFF70FFF2146FEF77AFB86F3118851
:103CF000BFF36F8FBDE8F883EB184EEBE571C2E9B7
:103D0000003100220023C0E90423FFF723FF86F3DC
:103D10001188BFF36F8F836898474FF02003EFF34C
:103D2000118683F31288BFF36F8F3C68641BBBE777
:103D3000A4080020A80000208802002010B54FF041
:103D40002003EFF3118483F31288BFF36F8FFFF723
:103D5000CFFE064A0346D2E90001181841EBE37191
:103D600084F31188BFF36F8F10BD00BF880200205D
:103D7000014800F0F8B900BF534F000010B50A4CDD
:103D800023681BB101232360002010BD00F0E6F87A
:103D90000028F7D00138062803D8044B53F8200038
:103DA00010BD034810BD00BFA8080020F84D00005A
:103DB000FE8FFFFFBFF34F8F0549064BCA6802F421
:103DC000E0621343CB60BFF34F8F00BFFDE700BF3E
:103DD00000ED00E00400FA0510B4094B09490A4C53
:103DE0004FF0FE32C3F800244968C3F80424C3F836
:103DF0000824C3F80C240023C4F8003510BC08477D
:103E000000B00250B000002000A00250D0E9001223
:103E1000014BC3E900127047B000002010B5044602
:103E200050B1636813F0685F05D0064A934202D030
:103E300000232360626010BD034B04485B68984711
:103E4000EFE700BF2C5F5CA9B0000020144E00001B
:103E5000C8B143680D4A934213D013F0685F0ED087
:103E6000012350E8002F194640E8001C9CF0000F89
:103E7000F7D1012AF5D0BFF35F8F002070470448C7
:103E80007047044870476FF4E04070472C5F5CA9AE
:103E9000E98FFFFFEA8FFFFF80B14368094A934231
:103EA0000AD013F0685F05D0BFF35F8F0023036073
:103EB0001846704704487047044870476FF4E04064
:103EC000704700BF2C5F5CA9E98FFFFFEA8FFFFFFF
:103ED00010B5044620B1044B63600022226010BD7F
:103EE0000248FFF779FFF6E73A00003A3C4E00003F
:103EF00070B5D0E90023154C154D6360D0E9023050
:103F0000C4E902302260134B0868186048685860A2
:103F100088689860D1E90301D8601961D5F8183133
:103F200013F0685F10D00C49C5F8BC110023C5E937
:103F3000453105F58A70C5F8B8319047236805F515
:103F4000DC70BDE87040184770BD00BFC0000020A5
:103F5000C0080020D00000202C5F5CA938B500F01C
:103F60002FF820B1032400F063F8204638BD00F09C
:103F700031F898B900F0ACF898B90F4DD5F8283958
:103F80001B0EF02B08D1D5F8242A0C4B9A420AD0EC
:103F9000072400F017F8E6E70624FAE70424204691
:103FA00038BD0024F5E7012000F092F8044600280F
:103FB000F7D1C5F80C0AD8E700B002500000E020A5
:103FC0000020704700207047014BC3F8040A704777
:103FD00000B0025010B5114800F048F800B110BD13
:103FE0000F4800F043F80028F9D10E4C204600F0AD
:103FF0003DF80028F3D10C4B0C481C6000F036F85B
:1040000001460028EBD100F02DF8044608B1204607
:1040100010BD00F03FF82046FAE700BF080100207D
:10402000FC000020040100200C0100200001002001
:1040300008B5084800F024F8074800F021F80748C0
:1040400000F01EF8064800F01BF8BDE8084000F03C
:104050000BB800BF08010020FC0000200401002074
:104060000001002000207047704700BF08B5034BD7
:1040700002681B6810689847002008BDC000002037
:1040800008B5034B02685B6810689847002008BDBC
:10409000C000002070B5094C094D2069AB689847F5
:1040A00018B1084B08485B689847084AEB682069D4
:1040B00000211160BDE87040184700BFD00000200B
:1040C000C0000020B0000020604E0000BC080020AE
:1040D000F8B51A4D1A4E0446B26828699047E8B9F7
:1040E000184F3B684CB1A3B1012B19D0013B3B6089
:1040F0002869F36898470020F8BD43B9124A0121A6
:10410000C2F800151149D1F81029002AFBD101335A
:104110003B60F368286998470020F8BD0C48F8BD5B
:104120000A4AD2F81039002BFBD1074A6FF07E40C3
:10413000C2F80035FFF748FF3B68D7E7D000002002
:10414000C0000020BC08002000A0025000B00250B7
:10415000E98FFFFF08B5FF21062000F052F900208B
:1041600008BD002070470FB407B504A951F8040B2F
:104170000191FCF773F903B05DF804EB04B07047EC
:10418000044608B5084611461A46A047FFF730FC1A
:10419000FDF740FB038B13F0070305D10368002BE9
:1041A0000CBF002003207047022B05D1408BB0FAD2
:1041B00080F0400980007047012B05D10368002B77
:1041C0000CBF0020052070470020704710B50C463A
:1041D00000B111B96FF0150010BD081D00F095F881
:1041E0000028F9D1A368032BF6D9F3E72DE9F041B4
:1041F0000D4607461946281D90461E4600F096F8C3
:10420000044638B13346424629463846A446BDE8FE
:10421000F0416047BDE8F08110B44FF02004EFF3A7
:10422000118284F31288BFF36F8F416110BC0121AA
:10423000FCF722B938B50C46054658B151B10B68A8
:1042400043B14B6833B11C22002100F00BF92C6103
:10425000002038BD6FF01500FBE770B505460E462F
:10426000FFF7B4FF041E15DB4FF02003EFF31182BC
:1042700083F31288BFF36F8F6B8B2C8B4FF6FF711C
:104280008B4204F0070407D182F31188BFF36F8FCC
:104290006FF00A04204670BD022C0CD101336B83F1
:1042A00082F31188BFF36F8F0023224631462846E0
:1042B000FFF79CFFEEE7062C14D8DFE804F00413A8
:1042C0001313041A0400002333606B683BB9C5E97B
:1042D0000066ACB902212846FCF7CEF8DAE71E608A
:1042E0006E60F6E782F31188BFF36F8F6FF00404FE
:1042F000D0E782F31188BFF36F8F6FF08504C9E7B1
:1043000082F31188BFF36F8FC4E7034658B1426848
:1043100002F00302012A03D0032A04D1026812B179
:104320000020986070476FF0150070474268816008
:1043300002F00302032A4FF0000203460CBF00689C
:1043400010465A6070472DE9F84F9A46D3786F2B84
:1043500080460F461546A3F1410B29D024D8582B8F
:104360000CBF10260A26DDF828903246002340466E
:104370003946FBF7C5FE092AD4B21ED83034B04501
:10438000E4B277F1000709F8014D01D3D14511D806
:104390002B789B0605D5082E15D1AB7843F0080382
:1043A000AB704846BDE8F88F03F0F703702BD7E7F2
:1043B0000826D8E780460F46D7E7BBF1190F94BF10
:1043C00037345734DBE7102EEBD1AB7843F01003D2
:1043D000E6E72DE9F0410746884615461E46144695
:1043E000B44205D30EB1601B08E02378002BFAD04D
:1043F00014F8010B4146B8470028F1DABDE8F08116
:104400007047704708B50020FCF7F6FC00F0EDB9E6
:104410000146006800F0E9B900210120FFF7F6BF6E
:1044200008B5FCF78DFFBDE80840FDF765B8034609
:1044300000201A5C02B970470130FAE703460020F9
:104440001A5C0AB1884200D170470130F8E710B514
:10445000431E0A44914200D110BD11F8014B03F8EC
:10446000014FF7E7C9B202440346934200D17047B7
:1044700003F8011BF9E7062808D14FF08043012219
:10448000C3F80025BFF34F8F20BFFDE7704700231F
:1044900083F31188BFF36F8F70470369C9B20C2291
:1044A00001FB0233186C00F0070070474FF0200347
:1044B000EFF3118283F31288BFF36F8F036803F069
:1044C000C00343F00203036082F31188BFF36F8FD0
:1044D000704770B5C9B203694FF02004EFF311853E
:1044E00084F31288BFF36F8F0C2606FB0134246C13
:1044F00014F0C00408D0A24206D085F31188BFF39F
:104500006F8F4FF0FF3070BD06FB013301221A643C
:1045100085F31188BFF36F8F436803EBC1035B68BA
:1045200098470020EFE78022FFF7D3BFF8B5069F3A
:104530000469C9B24FF02005EFF3118685F31288A4
:10454000BFF36F8F0C2505FB0144256C05F0070CAC
:10455000BCF1010F0CD1276486F31188BFF36F8F74
:10456000C4E90E23436853F8313098470020F8BD62
:1045700005F0C005AF4286F31188BFF36F8F0CBF03
:104580006FF077004FF0FF30F1E713B5802400940F
:10459000FFF7CCFF02B010BD10B40069CBB21C24F1
:1045A00003FB0400002110BC1047002000F07BB882
:1045B000002000F0B4B81046FEF7F0BE43685B6818
:1045C000D3F810350B600020704743685B6802EA3F
:1045D000010021EA0201C3F80805C3F80C15002008
:1045E000704743685B680020C3F80815704743684C
:1045F0005B680020C3F80C15704743685A68D2F80E
:10460000043521EA03000B40C2F80805C2F80C3556
:104610000020704710B503695868F8B1884219D175
:104620009C6808685860A14200D19860002008602A
:104630002AB15A680A609A68596002B999600020E4
:1046400010E0814206D10868206098688142EDD16F
:104650009C60EBE7044600680028F2D1002AE8D10C
:104660006FF0150010BD704708B50020FDF7E0F9A8
:10467000FFF784BB08B5FCF725FDFCF7F9FDBDE8A5
:104680000840FFF77BBB004700F01BBA08B50020CD
:10469000FCF730FE08B9FCF71FFE4FF08043002204
:1046A000C3F8182508BD08B510B101282CD008BDE5
:1046B0004FF08042D2F81834D2F81814C8030BD443
:1046C000D2F81434D9070FD5D2F81C349B0708D47C
:1046D0000223C2F80433EAE703F00303012B04D0FA
:1046E00013B10020FDF7BCFF00234FF08042C2F859
:1046F00018350023C2F80431D2F804310223C2F87D
:10470000043301239360D2E74FF080430022C3F8C3
:104710000021D3F80021C3F804031860C7E7FDF7B0
:104720009FBFF7B5019001A8DDE9084716461D4671
:10473000FEF73EF8019BB6F1000C18BF4FF0010CDC
:1047400000EB83000B1E18BF0123002D43EA4C032E
:1047500014BF4FF00C0C4FF0000C002C43EA0C037C
:1047600014BF4FF4E06C4FF0000C002F43EA0C0331
:10477000D0F8002714BF4FF4403C4FF0000C43EA40
:104780000C0322EA030301B109780EB136787600F2
:1047900019430DB12D78AD0031430CB124782402BA
:1047A00029430FB13F783F040C433C43C0F8004716
:1047B00003B0F0BD1FB50DF10F03019300238DF879
:1047C0000F1000931A461946FFF7ABFF05B05DF8CE
:1047D00004FB704740B1C368587810F001001EBF59
:1047E0001878B0FA80F040097047F8B505460E46D3
:1047F0004FF02003EFF3118783F31288BFF36F8F1D
:10480000FFF7F6F8314604462846FFF72DFF87F3F9
:104810001188BFF36F8F2046BDE8F840FCF7FABF60
:10482000FFF720BEFFF713BED0E90332134313F0A6
:1048300003030CD143618168994201D8002070477D
:1048400041691160C168426101330A44F3E76FF0C6
:104850001500704710B5C0E9023200230161836181
:104860000446FFF7E1FF0028A8BFC4E9004410BDDB
:10487000F8B504460D464FF02003EFF3118683F39D
:104880001288BFF36F8F476977B900F0A2F858B16B
:104890002A684261876700F08CF8314604F108000D
:1048A000BDE8F840FEF76ABF2B6862691A602B68A2
:1048B0006361A369013BA36186F31188BFF36F8F26
:1048C000F8BDEFF30580003818BF0120704708B528
:1048D000FCF7D6FABDE80840FFF7C5BE90F90E30E8
:1048E0008B4201D0FEF704BF002070470346002032
:1048F000C3E90200C3E900337047D0E90032136016
:104900005A600023C0E90033704708B5FFF7F5FF90
:10491000437B23F0020343730023836008BD10B57B
:1049200001464FF02003EFF3118483F31288BFF3A5
:104930006F8F10F80B3C13F0280F0DD151F8103C7D
:1049400018380BB1FFF7E1FF11F80B3C23F014030B
:1049500001F80B3CFEF7D6FD84F31188BFF36F8F8F
:1049600010BD38B504460D46FEF700FE637B43F0EC
:1049700002036373E5B1A5602B689D4209D16B68A2
:10498000C4E900531C606C6012E06A689342F6D080
:104990001B68002BF3D094F90E2093F90E108A4275
:1049A000F3D09142F1DD5A68C4E9003214605C60D2
:1049B00038BD10B54FF02003EFF3118483F3128854
:1049C000BFF36F8FFEF79EFD84F31188BFF36F8FE7
:1049D00010BD38B54FF02003EFF3118583F3128833
:1049E000BFF36F8F0468A0420DD034B12046FFF7AB
:1049F0008CFF04F1180000F01EF885F31188BFF356
:104A00006F8F204638BD0024F7E7034620B9EFF347
:104A100005820AB9FCF7B4BC83F31188BFF36F8F2A
:104A200070474FF02003EFF3118083F31288BFF338
:104A30006F8FFFF7EABF10B54FF02002EFF311843C
:104A400082F31288BFF36F8F03683BB1FFF782F8E0
:104A5000002084F31188BFF36F8F10BD6FF0150035
:104A6000F7E710B54FF02003EFF3118483F31288BA
:104A7000BFF36F8FFFF746F884F31188BFF36F8F92
:104A800010BD70B504460D464FF02003EFF31186BC
:104A900083F31288BFF36F8FFFF734F8012807DD27
:104AA000A04205DBA0422946A8BF2046FDF798FC9E
:104AB00086F31188BFF36F8F70BD08B5FFF73EF91D
:0C4AC00008BD08B1FCF7CABF7047704782
:084ACC0068B6FF7F0100000045
:104AD400D119000000000000E51A00001C4B000082
:104AE4005D30000000000000211E0000344B000077
:104AF400211E00004C4B0000714600000000000025
:104B040055410000000000007D220000000000006C
:084B14007546000000000000DE
:104B1C00174F00006C4D00007C4D00001001002070
:104B2C00F0070020F04C0000264F0000984D0000CC
:104B3C00B84D00001201002044080020EA4C00008F
:104B4C00344F0000A84D0000B84D000014010020A7
:084B5C0050080020E44C0000A9
:104B640049270000874600000000000019440000A7
:104B74000000000019440000000000001944000077
:104B84000000000019440000000000001944000067
:104B9400C52C0000874600000000000019440000F6
:104BA4000000000019440000000000001944000047
:104BB4000000000019440000000000001944000037
:104BC4000000000019440000000000001944000027
:104BD4000000000019440000000000001944000017
:104BE400000000001944000000000000FD22000045
:104BF40000000000194400000000000019440000F7
:104C040000000000194400000000000019440000E6
:104C140000000000194400000000000019440000D6
:104C240000000000194400000000000019440000C6
:104C340000000000194400000000000019440000B6
:104C440000000000194400000000000019440000A6
:104C54000000000019440000000000001944000096
:104C64000000000019440000000000001944000086
:104C74000000000019440000000000001944000076
:104C84000000000019440000000000001944000066
:104C94000000000019440000000000001944000056
:104CA4000000000019440000000000001944000046
:104CB4000000000019440000000000001944000036
:104CC4000000000019440000000000001944000026
:104CD4000000000019440000000000001944000016
:104CE40000800080FF7F00800080FF7F00800080C4
:024CF400FF7F40
:0A4CF600FFFFFFFFFFFFFFFFFFFFBE
:104D00000338FDD870470000000000000544000093
:104D100020000020180000201000002000000000EB
:104D200008000020DD110000D11000002511000056
:104D300085110000000000200000000000000B06AC
:104D400002000000484D000000000000024F00007B
:104D500026000207000000200A4F000022000B116D
:104D6000A11A0000711A0000000000008D1B000055
:104D7000251C0000AB450000B1450000F11B000000
:104D8000274500008B450000000000009B44000008
:104D90000000000000000000FFFF000000030050C2
:104DA0000000000001000000FFFFFFFF00000050B6
:104DB0000000000000000000A51E0000BD4500002E
:104DC000CB450000E3450000EF450000FB45000037
:104DD0004D1D00001546000000000000F5FFFFFF1C
:104DE000D44A0000D44A0000044B0000144B0000D9
:104DF0001C4B00001C4B0000FF8FFFFFFF8FFFFFCD
:104E0000FE8FFFFFFE8FFFFFFD8FFFFFFC8FFFFF79
:104E1000FC8FFFFF6D757465785F66726565206352
:104E2000616C6C65642077697468204E554C4C2029
:104E3000706172616D6574657200000043616E2778
:104E40007420696E697469616C697A65206D757426
:104E500065782C20776173204E554C4C0D0A00006C
:104E6000436F756C64206E6F74206C6F636B207081
:104E70006F7765722073617665206D757465780053
:104E8000286E696C29004661696C656420746F2026
:104E90007265626F6F743A207370696E6E696E67C7
:104EA00020656E646C6573736C792E2E2E0A006D0E
:104EB000757465785F696E69742063616C6C656494
:104EC0002077697468204E554C4C20706172616D7A
:104ED0006574657200436F756C64206E6F74206139
:104EE0006C6C6F63617465206D75746578206265A4
:104EF000666F726520696E697469616C697A696E42
:104F00006700464C4153485F30005352414D5F307B
:104F100000000001000000636C6F636B40343030B0
:104F20003030303030006770696F403530303030AD
:104F3000333030006770696F40353030303030309A
:104F400030000000000000010100000000006D6161
:104F5000696E002A2A2A20426F6F74696E67205A90
:104F60006570687972204F53206275696C64207691
:104F7000332E322E39392D6E637331202A2A2A0AB4
:044F8000000000002D
:104F840063410000FFFFFFFF2C0100203A000000F6
:104F9400400100203A000000180100203A000000FF
:104FA400540100203A0000000090D00300000000EB
:104FB40000000000000000000000000000000000ED
:104FC40000000000000000000000000000000000DD
:104FD40000000000000000000000000000000000CD
:104FE40000000000000000000000000000000000BD
:104FF40000000000000000000000000000000000AD
:10500400000000000000000000000000000000009C
:10501400000000000000000000000000FF0000008D
:105024000000000000000000A8000020A8000020EC
:1050340000000000B53D0000AC0800203A00003A32
:10504400D13E00001D3E0000513E0000993E00008C
:10505400F4000020B8000020EC0000200000000054
:10506400E4000020B00800203A00003AB408002010
:105074003A00003AB80800203A00003AD400002070
:10508400E0000020D8000020D0000020040100200F
:0650940000000000000016
:02509A00FFFF16
:10509C001801002018010020000000000000000092
:1050AC000E0000002C0100202C010020000000004C
:1050BC00000000000E000000400100204001002014
:1050CC0000000000000000000E0000005401002051
:1050DC005401002000000000000000000E00000041
:0450EC0015E015E0D6
:0400000300001739A9
:00000001FF
